{
  "contractName": "jwt_storage",
  "abi": [
    {
      "anonymous": false,
      "inputs": [
        {
          "indexed": false,
          "internalType": "string",
          "name": "newToken",
          "type": "string"
        }
      ],
      "name": "TokenUpdated",
      "type": "event"
    },
    {
      "constant": false,
      "inputs": [
        {
          "internalType": "string",
          "name": "_token",
          "type": "string"
        }
      ],
      "name": "setToken",
      "outputs": [],
      "payable": false,
      "stateMutability": "nonpayable",
      "type": "function"
    },
    {
      "constant": true,
      "inputs": [],
      "name": "getToken",
      "outputs": [
        {
          "internalType": "string",
          "name": "",
          "type": "string"
        }
      ],
      "payable": false,
      "stateMutability": "view",
      "type": "function"
    }
  ],
  "bytecode": "0x608060405234801561001057600080fd5b50610374806100206000396000f3fe608060405234801561001057600080fd5b50600436106100365760003560e01c806321df0da71461003b57806342f5982a146100b8575b600080fd5b610043610160565b6040805160208082528351818301528351919283929083019185019080838360005b8381101561007d578181015183820152602001610065565b50505050905090810190601f1680156100aa5780820380516001836020036101000a031916815260200191505b509250505060405180910390f35b61015e600480360360208110156100ce57600080fd5b8101906020810181356401000000008111156100e957600080fd5b8201836020820111156100fb57600080fd5b8035906020019184600183028401116401000000008311171561011d57600080fd5b91908080601f0160208091040260200160405190810160405280939291908181526020018383808284376000920191909152509295506101f7945050505050565b005b60008054604080516020601f60026000196101006001881615020190951694909404938401819004810282018101909252828152606093909290918301828280156101ec5780601f106101c1576101008083540402835291602001916101ec565b820191906000526020600020905b8154815290600101906020018083116101cf57829003601f168201915b505050505090505b90565b805161020a9060009060208401906102a7565b507f6714407191569b7b9edd5db2d624b8e2281272e577950f0e87ca156570ffe9e4816040518080602001828103825283818151815260200191508051906020019080838360005b8381101561026a578181015183820152602001610252565b50505050905090810190601f1680156102975780820380516001836020036101000a031916815260200191505b509250505060405180910390a150565b828054600181600116156101000203166002900490600052602060002090601f016020900481019282601f106102e857805160ff1916838001178555610315565b82800160010185558215610315579182015b828111156103155782518255916020019190600101906102fa565b50610321929150610325565b5090565b6101f491905b80821115610321576000815560010161032b56fea265627a7a723158206ed0cd7d902c7f5dd88424762187e57167f19e9626b28f135920f40c663aac4164736f6c63430005100032",
  "source": "// SPDX-License-Identifier: MIT\npragma solidity >=0.4.22 <0.9.0;\n\ncontract jwt_storage {\n  \n    // Storage variable to hold the token\n    string private token;\n\n    // Event for when the token is updated\n    event TokenUpdated(string newToken);\n\n\n    // Function to set the token (initial setup)\n    function setToken(string memory _token) public {\n        token = _token;\n        emit TokenUpdated(_token);\n    }\n\n    // Function to get the token and add the caller to the fetchers list if not already added\n    function getToken() public view returns (string memory) {\n        // Add caller to fetchers list if not already added\n        return token;\n    }\n}\n\n",
  "sourcePath": "E:\\intern\\thesis\\contracts\\jwt_storage.sol",
  "compiler": {
    "name": "solc",
    "version": "0.5.16+commit.9c3226ce.Emscripten.clang"
  },
  "schemaVersion": "3.4.16",
  "updatedAt": "2024-11-16T12:26:11.216Z",
  "networkType": "ethereum",
  "devdoc": {
    "methods": {}
  },
  "userdoc": {
    "methods": {}
  }
}